:100000000C9463000C948B000C948B000C948B006C
:100010000C948B000C948B000C948B000C948B0034
:100020000C948B000C948B000C948B000C948B0024
:100030000C948B000C948B000C948B000C948B0014
:100040000C94EB030C948B000C94A3060C94D50633
:100050000C948B000C948B000C948B000C948B00F4
:100060000C948B000C948B0000000008000201002F
:100070000003040700000000000000000102040863
:100080001020408001020408102001020408102002
:10009000040404040404040402020202020203032E
:1000A00003030303000000002300260029000000D2
:1000B0000000250028002B0000000000240027007D
:1000C0002A000501050711241FBECFEFD8E0DEBFCF
:1000D000CDBF11E0A0E0B1E0E2E8F2E102C005909E
:1000E0000D92A639B107D9F722E0A6E9B1E001C027
:1000F0001D92A634B207E1F710E0C6ECD0E004C0D0
:100100002297FE010E943609C23CD107C9F70E941E
:100110006B080C943F090C94000062E071E089EADE
:1001200091E00E94930726E040E855E260E070E02D
:1001300089EA91E00C9441060F931F93CF93DF93CC
:1001400000D0CDB7DEB76AEF70E080E090E00E94AB
:1001500058041A821982E0919601F09197016091FA
:100160000001709101010280F381E02D00E010E0B8
:100170009E012F5F3F4FAE014E5F5F4F86E991E0DA
:1001800009958C01009791F060E271E089EA91E0B5
:100190000E9486074AE050E0B80189EA91E00E9497
:1001A000500868EE73E080E090E026C068E371E0FC
:1001B00089EA91E00E9486076A8170E04AE050E097
:1001C00089EA91E00E94480864E471E089EA91E0DC
:1001D0000E948607698170E04AE050E089EA91E078
:1001E0000E9448086AE471E089EA91E00E9493075E
:1001F0006CED75E080E090E00E9458040F900F9045
:10020000DF91CF911F910F9108956091000170913E
:10021000010186E991E00C94DF03CF92DF92EF9227
:10022000FF920F931F93CF93DF93CDB7DEB728973D
:100230000FB6F894DEBF0FBECDBF6B017A011D82F1
:100240001E821F82188619821A821B821C82DC0180
:10025000ED91FC910480F581E02DAE014F5F5F4F81
:10026000BE016B5F7F4F09958C010097B1F4C114FB
:10027000D10441F06D817E818F8198850E947B0839
:10028000F6016083E114F10441F069817A818B8188
:100290009C810E947B08D7016C93C80128960FB6F9
:1002A000F894DEBF0FBECDBFDF91CF911F910F91AC
:1002B000FF90EF90DF90CF90089527E030E080E04E
:1002C000FB014191BF01022E01C0440F0A94EAF7DD
:1002D000840F21503109A0F708958F929F92AF9219
:1002E000BF92CF92DF92EF92FF920F931F93CF9323
:1002F000DF93EC018B016A017901E881F9810284C5
:10030000F385E02D0995B82EE881F981B801685F81
:100310007F4F0284F385E02DCE010995A82EE88158
:10032000F981B801605F7F4F0284F385E02DCE0133
:100330000995982EE881F981B801685E7F4F0284A3
:10034000F385E02DCE010995882EE881F981B80169
:10035000605E7F4F0284F385E02DCE0109959A2DD2
:100360009B0D990D980D89130FC0682D70E07929A8
:10037000F601718360834A2D50E05B29F7015183B8
:10038000408380E090E002C089E690E0DF91CF9169
:100390001F910F91FF90EF90DF90CF90BF90AF90A3
:1003A0009F908F9008958F929F92AF92BF92CF921D
:1003B000DF92EF92FF920F931F93CF93DF93CDB70E
:1003C000DEB7AC970FB6F894DEBF0FBECDBF5C01B1
:1003D0007B018A014901CE0101966C0188E2D601B8
:1003E0001D928A95E9F7D501ED91FC910484F5857C
:1003F000E02DB601C5010995009709F052C01CA671
:100400001BA61AA619A6D501ED91FC910684F785C5
:10041000E02D9E01275D3F4FAE01455D5F4FB60168
:10042000C50109950097E9F58114910439F088E236
:10043000F601D40101900D928A95E1F7E114F104DF
:1004400081F08CA5682F782F770F770B882777FDA1
:100450008095982F0E94AE08F70160837183828394
:1004600093830115110589F08AA5682F782F770FDE
:10047000770B882777FD8095982F0E94AE08D801CA
:100480006D937D938D939C9313978BA59CA5892B3E
:1004900031F489A59AA5892B11F48AE601C080E080
:1004A00090E0AC960FB6F894DEBF0FBECDBFDF91E3
:1004B000CF911F910F91FF90EF90DF90CF90BF9061
:1004C000AF909F908F9008957F928F929F92AF925E
:1004D000BF92CF92DF92EF92FF920F931F93CF9331
:1004E000DF93EC01162F4A0159010E9435046B017C
:1004F0007C01112311F0788401C0712C00E010E020
:1005000021E060E070E0CB01222381F197FD32C051
:100510002A813B814C815D8126173707480759079F
:100520004CF10115110529F41814190444F4C401FF
:1005300004C01A141B041CF4C5010E9480040E940C
:1005400035046C197D098E099F09E985F0E0EE0FED
:10055000FF1FEC55FF4FA591B4913C9128853223A4
:1005600021E0371120E00F5F1F4FCECF462F372FEE
:10057000282F04C04FEF3FEF2FEF9FEF642F732F13
:10058000822FDF91CF911F910F91FF90EF90DF901D
:10059000CF90BF90AF909F908F907F900895EF92F3
:1005A000FF920F931F93CF93DF93EC017B0188E2BF
:1005B000FB0111928A95E9F761E08E810E94EF04B8
:1005C00060E08E810E94280564E170E080E090E0A8
:1005D0000E94580461E08E810E94280560E08E81AF
:1005E0000E94EF0489E190E00E948004E881F98193
:1005F0000084F185E02D26E030E04AE050E060E044
:10060000CE01099564327105810591050CF459C03C
:10061000E881F9810084F185E02D26E030E04AE0B0
:1006200050E061E0CE0109956434710581059105C2
:100630000CF44AC000E010E0E881F9810084F18503
:10064000E02D26E030E04AE050E060E0CE01099580
:100650006831710581059105D4F1E881F981008443
:10066000F185E02D26E030E04AE050E061E0CE0187
:1006700009956B3071058105910564F121E06932BE
:100680007105810591050CF420E0F70121937F01AC
:100690000F5F1F4F0832110579F6E881F981008458
:1006A000F185E02D26E030E04AE050E060E0CE0148
:1006B000099568317105810591057CF488E690E023
:1006C0000EC084E690E00BC085E690E008C086E6A8
:1006D00090E005C087E690E002C080E090E0DF9106
:1006E000CF911F910F91FF90EF900895DC01179625
:1006F0007C936E931697FB01E458FF4FE491189694
:10070000EC931897FB01E057FF4F649119966C9397
:100710000895FC01CB0121E531E03183208340E4E1
:100720005BE46CE470E042835383648375832FEF52
:100730003FEF3783268320872187BC01CF010C94AC
:100740007603CF92DF92EF92FF920F931F93CF9396
:10075000DF93EC017A0169010E947603E881F98157
:100760000190F081E02D9801A601B701CE01DF9143
:10077000CF911F910F91FF90EF90DF90CF90099450
:10078000CF92DF92EF92FF920F931F93CF93DF935D
:10079000EC017A0169010E947603E881F981048005
:1007A000F581E02D9801A601B701CE01DF91CF912F
:1007B0001F910F91FF90EF90DF90CF900994CF930E
:1007C000DF93EC010E94890385E691E09983888399
:1007D000DF91CF9108951F920F920FB60F921124BF
:1007E0002F933F938F939F93AF93BF938091A101DA
:1007F0009091A201A091A301B091A4013091A00118
:1008000023E0230F2D3720F40196A11DB11D05C053
:1008100026E8230F0296A11DB11D2093A00180930D
:10082000A1019093A201A093A301B093A401809190
:10083000A5019091A601A091A701B091A8010196F0
:10084000A11DB11D8093A5019093A601A093A701BE
:10085000B093A801BF91AF919F918F913F912F913C
:100860000F900FBE0F901F9018953FB7F89480918E
:10087000A5019091A601A091A701B091A80126B56C
:10088000A89B05C02F3F19F00196A11DB11D3FBFC8
:100890006627782F892F9A2F620F711D811D911D58
:1008A00042E0660F771F881F991F4A95D1F7089578
:1008B000CF92DF92EF92FF92CF93DF936B017C0197
:1008C0000E943504EB01C114D104E104F10489F064
:1008D0000E947A080E9435046C1B7D0B683E7340B1
:1008E00090F381E0C81AD108E108F108C851DC4F43
:1008F000EACFDF91CF91FF90EF90DF90CF900895F6
:100900008230910538F0880F991F880F991F05973D
:100910000197F1F70895789484B5826084BD84B519
:10092000816084BD85B5826085BD85B5816085BDEA
:10093000EEE6F0E0808181608083E1E8F0E0108203
:10094000808182608083808181608083E0E8F0E044
:10095000808181608083E1EBF0E08081846080832E
:10096000E0EBF0E0808181608083EAE7F0E0808165
:1009700084608083808182608083808181608083C5
:100980008081806880831092C1000895833081F057
:1009900028F4813099F08230A1F008958730A9F0D1
:1009A0008830B9F08430D1F4809180008F7D03C00D
:1009B000809180008F7780938000089584B58F7731
:1009C00002C084B58F7D84BD08958091B0008F777B
:1009D00003C08091B0008F7D8093B0000895CF93C5
:1009E000DF9390E0FC01E458FF4F2491FC01E057B5
:1009F000FF4F8491882349F190E0880F991FFC01F3
:100A0000E854FF4FA591B49182559F4FFC01C591C9
:100A1000D4919FB7611108C0F8948C9120958223DE
:100A20008C93888182230AC0623051F4F8948C91AF
:100A3000322F309583238C938881822B888304C046
:100A4000F8948C91822B8C939FBFDF91CF91089566
:100A50000F931F93CF93DF931F92CDB7DEB7282F4D
:100A600030E0F901E859FF4F8491F901E458FF4F54
:100A70001491F901E057FF4F04910023C9F0882336
:100A800021F069830E94C6046981E02FF0E0EE0F37
:100A9000FF1FE255FF4FA591B4919FB7F8948C9139
:100AA000611103C01095812301C0812B8C939FBFDE
:100AB0000F90DF91CF911F910F910895FC01818DCF
:100AC000228D90E0805C9F4F821B91098F73992744
:100AD0000895FC01918D828D981731F0828DE80F79
:100AE000F11D858D90E008958FEF9FEF0895FC0133
:100AF000918D828D981761F0828DDF01A80FB11D55
:100B00005D968C91928D9F5F9F73928F90E0089578
:100B10008FEF9FEF08958BEF96E0892B49F080E0EF
:100B200090E0892B29F00E94FB0681110C940000B3
:100B30000895FC01848DDF01A80FB11DA35ABF4F9A
:100B40002C91848D90E001968F739927848FA689CC
:100B5000B7892C93A089B1898C9180648C93938DF3
:100B6000848D981306C00288F389E02D80818F7DE3
:100B700080830895CF93DF93EC01888D8823C9F09B
:100B8000EA89FB89808185FD05C0A889B9898C9196
:100B900086FD0FC00FB607FCF5CF808185FFF2CF31
:100BA000A889B9898C9185FFEDCFCE010E94990566
:100BB000E7CFDF91CF910895CF92DF92FF920F930D
:100BC0001F93CF93DF931F92CDB7DEB76C0181E007
:100BD000D60158968C9358975B969C915B975C9640
:100BE0008C915C97981307C05096ED91FC915197AA
:100BF000808185FD2EC0F601038D10E00F5F1F4F31
:100C00000F731127F02EF601848DF81211C00FB664
:100C100007FCF9CFD6015096ED91FC915197808158
:100C200085FFF1CFC60169830E9499056981EBCFE9
:100C3000838DE80FF11DE35AFF4F6083D6015B9669
:100C40000C935B975296ED91FC9153978081806253
:100C50000CC0D6015696ED91FC9157976083509643
:100C6000ED91FC91519780818064808381E090E0D8
:100C70000F90DF91CF911F910F91FF90DF90CF9058
:100C80000895BF92CF92DF92EF92FF92CF93DF93BE
:100C9000EC016A017B01B22EE889F98982E0808348
:100CA000411581EE580761057105A1F060E079E01A
:100CB0008DE390E0A70196010E94120921503109AD
:100CC000410951095695479537952795211580E19A
:100CD000380798F0E889F989108260E874E88EE1B5
:100CE00090E0A70196010E941209215031094109A3
:100CF00051095695479537952795EC85FD853083A5
:100D0000EE85FF852083188EEC89FD89B082EA8903
:100D1000FB89808180618083EA89FB89808188608A
:100D20008083EA89FB89808180688083EA89FB89E6
:100D300080818F7D8083DF91CF91FF90EF90DF9056
:100D4000CF90BF9008951F920F920FB60F9211246B
:100D50002F938F939F93EF93FF93E091B901F091BD
:100D6000BA018081E091BF01F091C00182FD12C003
:100D700090818091C2018F5F8F732091C301821790
:100D800051F0E091C201F0E0E755FE4F958F80935E
:100D9000C20101C08081FF91EF919F918F912F91AE
:100DA0000F900FBE0F901F9018951F920F920FB6C5
:100DB0000F9211242F933F934F935F936F937F93E1
:100DC0008F939F93AF93BF93EF93FF9389EA91E043
:100DD0000E949905FF91EF91BF91AF919F918F91E3
:100DE0007F916F915F914F913F912F910F900FBE27
:100DF0000F901F90189589EA91E00E945E0521E00E
:100E0000892B09F420E0822F08951092AC011092F2
:100E1000AB0188EE93E0A0E0B0E08093AD01909349
:100E2000AE01A093AF01B093B00189E791E0909338
:100E3000AA018093A90185EC90E09093B60180937C
:100E4000B50184EC90E09093B8018093B70180ECF9
:100E500090E09093BA018093B90181EC90E0909377
:100E6000BC018093BB0182EC90E09093BE01809323
:100E7000BD0186EC90E09093C0018093BF01109279
:100E8000C2011092C3011092C4011092C5010895CD
:100E9000CF92DF92EF92FF920F931F93CF93DF9346
:100EA0007C016A01EB0100E010E00C151D0571F0FA
:100EB0006991D701ED91FC910190F081E02DC7017E
:100EC0000995892B19F00F5F1F4FEFCFC801DF91F4
:100ED000CF911F910F91FF90EF90DF90CF900895E9
:100EE0006115710581F0DB010D900020E9F7AD017E
:100EF00041505109461B570BDC01ED91FC910280DA
:100F0000F381E02D099480E090E008950C9470073F
:100F1000DC01ED91FC910190F081E02D099465E8F0
:100F200071E00C9470070F931F93CF93DF93EC0144
:100F30000E9470078C01CE010E948F07800F911FC5
:100F4000DF91CF911F910F9108958F929F92AF9251
:100F5000BF92CF92DF92EF92FF920F931F93CF93A6
:100F6000DF93CDB7DEB7A1970FB6F894DEBF0FBE03
:100F7000CDBF7C01C42EE52FCB01D22E19A221E0DA
:100F80002D1510F02AE0D22E8E010F5D1F4F8D2CF3
:100F9000912CA12CB12C6C2D7E2FA50194010E94C7
:100FA00012098C2DD29E80191124015011098A300A
:100FB00014F4805D01C0895CF8018083211531053E
:100FC0004105510521F0C22EE32FCA01E4CFB8013B
:100FD000C7010E947007A1960FB6F894DEBF0FBE3E
:100FE000CDBFDF91CF911F910F91FF90EF90DF90D8
:100FF000CF90BF90AF909F908F900895CF92DF9247
:10100000EF92FF920F931F93CF93DF93EC016A014E
:101010007B012115310579F4E881F9810190F08196
:10102000E02D642FDF91CF911F910F91FF90EF90F2
:10103000DF90CF9009942A303105E9F477FF1AC088
:101040006DE20E9488078C0144275527BA014C198C
:101050005D096E097F092AE0CE010E94A507800F75
:10106000911FDF91CF911F910F91FF90EF90DF9033
:10107000CF9008952AE0B701A601CE01DF91CF916C
:101080001F910F91FF90EF90DF90CF900C94A507E8
:101090009A01AB01662757FD6095762F0C94FE07E9
:1010A0000F931F93CF93DF93EC019A01AB01662757
:1010B00057FD6095762F0E94FE078C01CE010E949D
:1010C0008F07800F911FDF91CF911F910F9108958E
:1010D0000E943A0908950E948B040E946A080E94A7
:1010E0008D00CBE8D5E00E949C002097E1F30E94A0
:1010F0008B05F9CF089504D06894B1118DC008957F
:1011000070D088F09F5790F0B92F9927B751A0F071
:10111000D1F0660F771F881F991F1AF0BA95C9F78B
:1011200012C0B13081F077D0B1E0089574C0672F5C
:10113000782F8827B85F39F0B93FCCF3869577953B
:101140006795B395D9F73EF4909580957095619524
:101150007F4F8F4F9F4F0895E89409C097FB3EF44F
:1011600090958095709561957F4F8F4F9F4F9923F4
:10117000A9F0F92F96E9BB279395F6958795779572
:101180006795B795F111F8CFFAF4BB0F11F460FF32
:101190001BC06F5F7F4F8F4F9F4F16C0882311F08A
:1011A00096E911C0772321F09EE8872F762F05C09E
:1011B000662371F096E8862F70E060E02AF09A9539
:1011C000660F771F881FDAF7880F9695879597F92E
:1011D000089557FD9058440F551F59F05F3F71F027
:1011E0004795880F97FB991F61F09F3F79F087958E
:1011F0000895121613061406551FF2CF4695F1DF17
:1012000008C0161617061806991FF1CF86957105A6
:10121000610508940895E894BB2766277727CB01DA
:1012200097F90895A1E21A2EAA1BBB1BFD010DC060
:10123000AA1FBB1FEE1FFF1FA217B307E407F50786
:1012400020F0A21BB30BE40BF50B661F771F881F62
:10125000991F1A9469F760957095809590959B01F8
:10126000AC01BD01CF010895EE0FFF1F0590F49171
:10127000E02D099481E090E0F8940C943F09F894F3
:02128000FFCF9E
:10128200020054656D706572617475726520616EDD
:10129200642048756D6964697479204461746100E1
:1012A20052656164204448543131206661696C653D
:1012B200642C206572723D0053616D706C65204F25
:1012C2004B3A2000202A432C200020480000000036
:1012D200000D01A1036808680864025D0168086DD9
:1012E20001000000000D01A103D301C00364025DEF
:1012F20001CF026D0100000000DC0548075E0577A2
:10130200056905BA050D0A006E616E00696E660018
:061312006F7666002E005C
:107E0000112484B714BE81FFF0D085E080938100F7
:107E100082E08093C00088E18093C10086E0809377
:107E2000C20080E18093C4008EE0C9D0259A86E02C
:107E300020E33CEF91E0309385002093840096BBD3
:107E4000B09BFECF1D9AA8958150A9F7CC24DD24C4
:107E500088248394B5E0AB2EA1E19A2EF3E0BF2EE7
:107E6000A2D0813461F49FD0082FAFD0023811F036
:107E7000013811F484E001C083E08DD089C08234E0
:107E800011F484E103C0853419F485E0A6D080C0E4
:107E9000853579F488D0E82EFF2485D0082F10E0AE
:107EA000102F00270E291F29000F111F8ED06801E7
:107EB0006FC0863521F484E090D080E0DECF843638
:107EC00009F040C070D06FD0082F6DD080E0C81688
:107ED00080E7D80618F4F601B7BEE895C0E0D1E017
:107EE00062D089930C17E1F7F0E0CF16F0E7DF06D8
:107EF00018F0F601B7BEE89568D007B600FCFDCFD4
:107F0000A601A0E0B1E02C9130E011968C91119780
:107F100090E0982F8827822B932B1296FA010C0160
:107F200087BEE89511244E5F5F4FF1E0A038BF0790
:107F300051F7F601A7BEE89507B600FCFDCF97BE46
:107F4000E89526C08437B1F42ED02DD0F82E2BD052
:107F50003CD0F601EF2C8F010F5F1F4F84911BD097
:107F6000EA94F801C1F70894C11CD11CFA94CF0C13
:107F7000D11C0EC0853739F428D08EE10CD085E9AC
:107F80000AD08FE07ACF813511F488E018D01DD067
:107F900080E101D065CF982F8091C00085FFFCCF94
:107FA0009093C60008958091C00087FFFCCF809118
:107FB000C00084FD01C0A8958091C6000895E0E648
:107FC000F0E098E1908380830895EDDF803219F02E
:107FD00088E0F5DFFFCF84E1DECF1F93182FE3DFCA
:107FE0001150E9F7F2DF1F91089580E0E8DFEE27F6
:047FF000FF270994CA
:027FFE00040479
:0400000300007E007B
:00000001FF
